:1040000000800120A57A0000A17A0000A17A0000BA
:10401000A17A0000A17A0000A17A0000A17A000034
:10402000A17A0000A17A0000A17A0000A17A000024
:10403000A17A0000A17A0000A17A0000A17A000014
:10404000A17A0000A17A0000A17A0000A17A000004
:10405000A17A0000A17A0000A17A0000A17A0000F4
:10406000A17A0000A17A0000A17A0000A17A0000E4
:10407000A17A0000A17A0000A17A0000A17A0000D4
:10408000A17A0000A17A0000A17A0000A17A0000C4
:10409000A17A0000A17A0000A17A0000A17A0000B4
:1040A000A17A0000A17A0000A17A0000A17A0000A4
:1040B000A17A0000A17A0000A17A000051C300009B
:1040C000DDC20000D9C2000095BD00004DC3000054
:1040D000E1C2000001C30000E5C2000049AD0000DC
:1040E00095C30000A17A0000A17A0000A17A000027
:1040F000A17A0000A17A0000A17A0000A17A000054
:10410000A17A0000A17A0000A17A0000A17A000043
:10411000A17A0000A17A0000A17A0000A17A000033
:10412000A17A0000A17A0000A17A0000A17A000023
:10413000A17A000010B5054C237833B9044B13B1B4
:10414000044800E000BF0123237010BD00010020DF
:1041500000000000F4EC000008B5034B1BB103495C
:10416000034800E000BF08BD00000000040100207B
:10417000F4EC0000154B002B08BF134B9D46A3F534
:10418000803A00218B460F461348144A121A08F051
:104190000AFF0F4B002B00D098470E4B002B00D08E
:1041A00098470020002104000D000D48002802D08F
:1041B0000C4800E000BF08F0C7FE2000290002F014
:1041C00097FE08F0ADFE00BF00000800008001204F
:1041D000000000000000000000010020E01D0020A1
:1041E000000000000000000037B50446684680E883
:1041F0000600251D03C885E805002373069B23617F
:10420000BDF81C30A38200232360084B1A6812B942
:104210001C6004E00A4611680029FBD114609888EC
:10422000013080B2988003B030BD00BF1C07002071
:1042300007B50379054A0193036806CA009308305D
:104240000223FFF7D1FF03B05DF804FB64D2000046
:1042500070B528242368E0B0B3F5804F05460E46BC
:1042600013D21B6BB3F5804F0FD25B6A4FF4C07251
:1042700069460020984730B9236832461B6B2946AF
:10428000DB6A6846984760B070BD4FF40170FAE78A
:1042900070B528252B68E0B0B3F5804F04D34FF4F8
:1042A0000174204660B070BD1B6B002BF7D05B6AB9
:1042B0004FF4C07269460020984704460028F0D1A8
:1042C00040F201262B68B3F5804FE8D21B6BB3F5A3
:1042D000804FE4D29B6A002168469847B042F1D0F3
:1042E00040F20323984218BF0446DAE741F67132E0
:1042F0000F4B10B5D969DA639A680E4C22F440125C
:10430000A04288BF42F480129A600B4A0B4CD2F84C
:104310001832A04223F0020388BF43F0020301F4E5
:104320008031C2F8183211B10022014BDA6310BD9E
:1043300000000340C017530200C0074080F0FA029B
:10434000094B0022996C30B5DC6C234642EA01042B
:10435000220C82701A0A210AC2701A0C1B0E0470F9
:1043600041700271437130BD0080E00F202A0B685C
:104370001EBF4FF0FF3191408B43590801F055317A
:104380005B1A03F033319B0803F033330B4401789D
:1043900003EB13130A444FF0013103F00F334B4387
:1043A000A2EB13630370704773B50026044602AD99
:1043B00005F8016D011D1B222846FFF7D7FF606835
:1043C0009DF80730B3EBD06F03D120F0784002B0F6
:1043D00070BD28461B2204F108018DF80760FFF725
:1043E000C5FFA0689DF80730B3EBD06F01D1C04383
:1043F000EBE74FF0FF30EAE74BF29A22036810B583
:10440000B2EB134F044611D19BB2012B0ED1FFF733
:10441000CBFF431C0AD04FF6FF72E068030C9342B7
:104420000AD180B2C01A18BF012010BD2368013321
:104430000CBF03200420F8E70220F6E737B5054655
:1044400001F10C04436901A9012220469847BDF8F7
:10445000043002A941F8083D0122AB692046984783
:1044600003B030BD2DE9F043054689B09946036994
:1044700008460E4617469847044600286CD1D9F8DE
:1044800004304FEA53285FEA580804F101036BD166
:1044900099F8032099F802301203DB0203F4006359
:1044A00002F480521A43B9F800306403C3F30A03DC
:1044B000134404F460441C442D4B1B22039327F047
:1044C0007843FF4302A901A802938DF80480FFF707
:1044D0004DFF9DF80420029B08A843EAC26300F840
:1044E0001D8D1B2201A927F0784704930197FFF740
:1044F0003DFF9DF80320019B08A943EAC263059391
:104500004FF0FF339DF84020069382F0010202F540
:104510007F42FE3244EA024441F8044DAB69012275
:1045200006F110009847AB690446012205A906F17F
:1045300008009847AB69002818BF0446012204A967
:10454000301D9847AB69002818BF0446012203A913
:104550003046984750B91CB131462846FFF76EFFE8
:10456000204609B0BDE8F0831C468CE70446F3E71B
:1045700001009AB2036803F07F03012B03D840685F
:1045800020F07C407047072B8CBFD81F002070475D
:1045900041F6713370B51C4C0122E669E36341F2C8
:1045A0000C03E250022360610546236100212120B3
:1045B00006F4803608F034FD18B90146212008F0D1
:1045C0002FFD42F20C030122E2500EB10023E363FF
:1045D000431C02D018B10D4800E00D4870BD0D4BD2
:1045E0009B680A3303F01F020123934023F0030367
:1045F0002B44AB4201D10020F0E755F8042B0132E7
:10460000F7D00548EAE700BF0000034024E000F0CF
:1046100021E000F00080E00F0EE000F0002310B574
:104620009A4201D1002010BD50F8234041F82340A8
:104630000133F5E77047000041F67132044B012168
:10464000DA6342F20C0299500022DA63704700BF2D
:104650000000034041F67132034B0121DA6342F25C
:104660000C02002099507047000003402DE9F047EC
:104670008646406800283CD0DEF800609246002460
:10468000374656F834500134C5F3130C013501D0C8
:1046900061454ED0844207F10807F2D135680135F3
:1046A0002ED0002506F1080706E056F83520BC4656
:1046B000013207F1080724D00135A542F5D1032BBB
:1046C00017D0DEF80080D8F80040C4F30754032C5C
:1046D00035D0002708F1080C08E058F83740E146CB
:1046E000C4F30754032C0CF1080C29D00137BD4248
:1046F000F3D101238EF80830C8B1DEF8006006E07F
:10470000B446C1F3130141EA0353CCE9003A002354
:10471000194656F833200133013218BF0131834264
:10472000F7D1DEF80C308B4201D2CEF80C10BDE888
:10473000F08741EA0351C7E9001ABDE8F087C14696
:10474000C1F3130141EA0353C9E9003ADFE700234B
:104750004FF0FF3230B544689C4205D1002303720C
:10476000C0E90333436130BD016801EBC30541F883
:1047700033206A600133EFE7EFF3108272B6034B28
:104780001A6003680846DB68184700BFB00F0020B6
:1047900070B50025044686B0C562A36AAB4202D854
:1047A000E06A06B070BD666D2068A36C05225B6987
:1047B00001A906FB0500984701A8FFF71DFE012887
:1047C00098BFE36A05F101059CBF0133E362E4E7AA
:1047D000F7B507460E460D467B6D86EA05045B423B
:1047E0001C40A5EB060001D003B0F0BDBB6C01225C
:1047F0005B6901A928469847019B013301D1043523
:10480000EAE72046F0E7F0B5002504462E4687B0DB
:10481000A36AB34202D8284607B0F0BD2368676D8B
:10482000052207FB0637A36C01A95B693846984748
:1048300001A8FFF7E1FD012809D807F1140120467E
:10484000FFF7C6FF636D143B834208BF0135013695
:10485000DEE7F0B5046806460C1B416D0025B4FB8D
:10486000F1F487B0B36A30685A1E9542776D06D36B
:10487000716D306801FB0400143007B0F0BD0134E5
:10488000B4FBF3F103FB1144B36C05225B6901A98E
:1048900007FB0400984701A8FFF7AEFD0128E7D900
:1048A0000135DFE72DE9F04F144607460E469946DD
:1048B000836C89B05B69012205A96068DDF84880D6
:1048C0009847BB6C01225B6904A930469847059B59
:1048D0005A1C06D10020A360A075607509B0BDE820
:1048E000F08F01214FF0000EA175217E049A04EB98
:1048F000C101CE61A1F820E0606802F07F05B042FE
:10490000C2F3D31CE9B20CD14FF0FF33C4F800C09E
:104910002175A360237D043B022B20D80020A075C5
:10492000DCE7206803F07F036045207D18BF84F832
:1049300016E088421CBF0020A075012B8CBF002010
:10494000012001298CBF0021012188421CBF0021C8
:10495000A175012D00F2D280012BDBD9D1E002F04C
:104960007F02012A0FD8BB6C02225B6906A9304680
:10497000984706A8FFF7FEFD237D032B69D8DFE8E3
:1049800003F06363040904A8F4E7CC21227E04EB5E
:10499000C2021184684AD35C049D88F8003005F097
:1049A0007F02012A88BF0025237E98BFC5F3C16519
:1049B00004EBC303012A83F82250B3F820A000F2CD
:1049C000A380BB6C02225B6906A93046984700238E
:1049D0000DF1200B0BF8113D202206A95846FFF7D8
:1049E000C5FC1A2207A9FFF7C1FC9DF80F30079AF2
:1049F000B3EB926F0CBF0123002308226375637D24
:104A000003B9A375A37D9BB1BAF1000F15D07B6DDF
:104A1000B018594286EA000C1CEA010F1CBF0021A5
:104A2000A175591E01405B1A9A4584BF0023A375E6
:104A300094F816B0BBF1000F30D095B9E37D002B90
:104A400075D14FF0000B16E0227E04EBC2021084F9
:104A5000A0E7227E062B04EBC20210849AD9012320
:104A60009AE7012394F819B0E375BBF1000F24D144
:104A70009D4228D165762AF00300304410441AF094
:104A8000030F7B6D18BF04305B4286EA00021342BD
:104A900003D031463846FFF7DCFEA060A27D12B19C
:104AA000236953442361237E012B0ED801332376DF
:104AB000B9F1000F0CD1A07D10E7012D37D0032DE7
:104AC00008BFA376BDE79B46D5E70023A375F2E7B1
:104AD000002AF0D0E37D002BEDD0BBF1000FEAD12E
:104AE000032DE8D0A1684B1CE5D0CDF80080012350
:104AF00022463846FFF7D6FEA075DCE7012B3FF6CD
:104B000009AF0023A37505E700231B2204A906A80B
:104B10008DF81830FFF72AFC9DF81830049AB3EB93
:104B2000D26F0CBF012300230422637567E7A27DC7
:104B30004FF0010BB4E700BF5ED0000013B50C4688
:104B4000002100932176134661682246FFF7AAFEF2
:104B500018B1E37D03B1A07EA075A07D02B010BDA9
:104B6000F0B50546002687B0AC6A013CB44203D8D4
:104B70000C46204607B0F0BD01B14C1E6F6D286891
:104B8000AB6C05225B6901A907FB0400984701A8EB
:104B9000FFF732FC0128ECD901362146E4E7F0B5F5
:104BA00004460D46466DA36C006887B05B6905221C
:104BB00001A906FB0500984701A8FFF71DFC012885
:104BC00004D801A8FFF7F0FB07B0F0BD2946204646
:104BD000FFF7C6FF0646676D2068A36C05225B6978
:104BE00001A907FB0600984701A8FFF7DDFB431C5E
:104BF000EAD0B54238BF0130E6E7036A416DDA1DFD
:104C00001439B2FBF1F2406A013203EBC202043004
:104C100000EB4200DA1CB2FBF1F203EBC2030333F8
:104C2000B3FBF1F3023301FB03007047214BD3F8D0
:104C3000F82102401CD1F0B4D3F8FC5103F5FC7408
:104C4000641BA410022CD3F8006212D0032C29D0CC
:104C5000012C1AD0184C05F10C026468C5E900401B
:104C6000C3F8FC21A96033680C333360F0BC704793
:104C700070470422104C6468686098182C601960B2
:104C8000C3F8FC013260F0BC70471A4608240A4F92
:104C90007F682F6042F8080B5960C3F8FC2134602C
:104CA000F0BC7047044C6468A960C5E90040C3F8D3
:104CB000FC31E7E730170020001000E0837DDB07C0
:104CC00001D5808A7047D0E901239B1A44BF828AAC
:104CD0009B1898B270470000044B5A6D22B9586572
:104CE000A3F858100120704700207047BC06002030
:104CF0000A20D0B50B4CE38C584307F075FE0646EE
:104D0000A08C0F4607F070FE0022074B07F0D6FE7E
:104D100002460B463046394607F0FAFF08F0E0F845
:104D20002083D0BDBC0600200000F43F40F2E243E7
:104D3000074A10B51468584303FB0141536800F556
:104D4000807001EB500118441160506010BD00BF2D
:104D5000BC0600200022134670B58AB0D910415C11
:104D600003F007042141CC0742BF0AA9891801F8C2
:104D7000283C03F1010348BF0132252BEED100236B
:104D80000D4DD910415C03F007042141C90707D537
:104D9000E91881F82A300133252BF2D10AB070BD11
:104DA00093FBF2F102FB11310AAE314411F8286C89
:104DB000EC1884F82A60EEE7BC060020024BD868A5
:104DC00080B28002704700BF0080E00F0C4B10B52E
:104DD0000C4CE41A0C4B1C4424F4FF5424F01F0424
:104DE000FFF7ECFFA04202D80024204610BD204669
:104DF000FFF702FB0128F8D904F50054F0E700BFE3
:104E000010000020FC0000203F0D01007FB502468D
:104E10006D460D4B03F110062C461868596808338F
:104E200003C4B3422546F7D1531E04A90F3211F82B
:104E3000014D13F8010F844204D19342F7D10120B0
:104E400004B070BD0020FBE730D0000070B51A4DF3
:104E5000286810BB194B1A4CE41A1A4B1C4424F452
:104E6000FF5424F01F04FFF7A9FF844214D2666B9D
:104E7000A6B1FFF7A3FF864210D2FFF79FFF06F10E
:104E8000400383420AD83046FFF7C0FF30B1F369D0
:104E900033F0080302D02C60286870BD04F59A76C0
:104EA0003046FFF7B3FF20B1D4F8503133F0080398
:104EB000F1D104F50054D6E77C0100201000002059
:104EC000FC0000203F0D0100BFF34F8F0549064B4A
:104ED000CA6802F4E0621343CB60BFF34F8F00BF98
:104EE000FDE700BF00ED00E00400FA0528231B6881
:104EF000B3F5804F05D21B6BB3F5804F01D2DB6B4E
:104F0000184740F20110704728231B68B3F5804F03
:104F100005D21B6BB3F5804F01D29B6B184740F253
:104F20000110704728231B68B3F5804F03D219681E
:104F3000064A914203D00023037083607047012228
:104F400002709A689B694260F7E700BF07B0CD5EC8
:104F500010B50C4630B90448FFF7E4FF034B23605B
:104F60000423A380002010BDD8010020DC01002014
:104F700010B508B3114B1A68918881421CD39988E7
:104F80000024814281BF0121126899809A6099882A
:104F90009A682AB904B19A604FF6FF71998009E0C6
:104FA000884204D00131126889B20124F1E70CB1C2
:104FB00098809A60104610BD0022FBE7240700206D
:104FC00037B50D461446FFF7D3FFD8B10369828A7F
:104FD00063B14FF6FE718A4208D100206946009005
:104FE000ADF80400984738B103B030BD2B60228083
:104FF000286848B92080F7E7009B2B60BDF8043093
:105000002380F5E70120EFE70020EDE737B50D46F7
:105010001446FFF7ADFF70B1036973B14FF6FE722E
:10502000818A914209D10095ADF80440694601207A
:10503000984703B030BD0120FBE70E20F9E70000E0
:1050400037B504460379124A0333019300F1440350
:10505000009306CA02231430FFF7C6F8228A237A87
:105060000192E26804F12C00009294E80600FFF738
:10507000BBF80546237AA4F8450084F84430227929
:10508000216804F1470007F083FF284603B030BDD4
:105090005CD2000070B50E4C0E4B04F110020646B7
:1050A0000D4692E8030083E803001846FFF7C0F8B6
:1050B0000222094B18341A7294E80300DE6083E878
:1050C00003001D821846BDE87040FFF7B9BF00BF5E
:1050D00030D00000CC160020040500202DE9F0415E
:1050E000054616468846FFF7E9FDAB8A181A80B2D6
:1050F000864228BF064637465FB93EB1D5E9013240
:105100009A4202BFAB7D43F00103AB753046BDE868
:10511000F081AB8A2C68A8681C44241AA3B2BB4255
:105120008CBF3C46A4B22246414607F031FFAB6833
:105130002968AA8A23440A44A0449342A7EB0404A2
:10514000AB60A7B228BFA960D6E770B50446154684
:105150001E4611B3FFF7B2FDA38A181A80B20128C8
:1051600029D9E37D63B1E368628A1A70120A07D015
:105170002068A18A013301448B4228BF0346F4E72B
:1051800000236382A3680222E36004F11201204637
:10519000FFF7A4FFE37D0133E3753246294620463D
:1051A000FFF79CFF638A03446382E37D13B9238A7C
:1051B0000344238270BD0020FCE72DE9F041164630
:1051C00005468846FFF77AFD864228BF0646B6B2F6
:1051D00037464FB92EB1AB7DDA0744BF23F0010348
:1051E000AB753046BDE8F081AB8A2C6869681C4419
:1051F000641AA3B2BB428CBF3C46A4B222464046CE
:1052000007F0C6FE6B682968AA8A23440A44A044B2
:105210009342A7EB04046B60A7B228BF6960D8E78C
:1052200070B51E46038A04461546EBB9C27DDAB155
:105230000123013A0B70C27500F110010222FFF741
:10524000BCFFE37D9BB1228A2946B24228BF324689
:105250002046FFF7B2FF238A1B1A2382E37D13B98E
:10526000638A1B1A638270BD00230B70EBE7638AAD
:105270002382E8E770B50E46B0B9FFF7E7FD0446B4
:10528000FFF7E4FD60B1094D04F59A7304F5BA74B3
:105290002A4618685968083303C2A3421546F7D155
:1052A000034B33600423B380002070BD80010020D5
:1052B000A001002038B5202204460D460C30002104
:1052C00007F071FE00234FF0FF32A375C4E90025FB
:1052D000A260E3756376A376237638BD2DE9F04F9F
:1052E0000E4600258BB004464FF0FF311046C6F342
:1052F000130917469A468DF81350FFF7DBFF4E450A
:1053000072D12B46E1688B4211D0A26802EBC30038
:1053100052F83320551C14D0C2F31302914510D11A
:105320004168A3694D1C03F10103A3614AD1E369FC
:105330000133E361237C002B58D148480BB0BDE812
:10534000F08F0133DFE72368ED1A636DB5FBF3F5EA
:1053500054E04046FFF7AEFF0DF11303029A4146B9
:105360002046FFF7EBFB8646D8B1B11C03D0D8F836
:105370000030B34215D19DF81330394A8AF8003015
:105380003B4602F1280B9446BCE80300DC4518605C
:105390005960624603F10803F5D1F346DCF80000DA
:1053A0001860D8F8081044E0BBF1000FC5D04E4596
:1053B00018D19AF800307A68314604F10800FFF7F6
:1053C00055F90FE03846FFF775FF0DF11303012281
:1053D00039462046FFF7B2FB0028ABD09DF81330CA
:1053E0008AF800300020A9E7B31CA3D1A56B681C84
:1053F000A9D1216B2046FFF7B3FB0546B31C18BFAC
:105400000123DFF85C800293236B626D03932368B2
:1054100005A902FB053BA36C05225B69584698472A
:1054200005A8FEF7E9FF0BF1140319464FF0000B36
:1054300001934A1C05D0636D019A5B424A401342B6
:1054400087D029462046FFF78BFB039BAB42ABD0AE
:10545000BBF1000FABD10546D6E700BF0BE000F073
:10546000E01000202DE9F04F4FF0FF330025894672
:105470004FF6FF71044600F1080689B0C0E90C132D
:105480008363C562C5633046FFF761F92046FFF7C5
:105490007FF900285ED14FF6FF7BD4F830800027DB
:1054A000D84514BF45460025A36A9F4255D32046E0
:1054B000FFF76EF9002836D1B84D2046FFF7A3F963
:1054C0002CE12368A26C606D576903A9052200FBDB
:1054D0000530B84703A8FEF78FFF0128074603D021
:1054E000C31EDBB2012B15D829462046FFF757FB18
:1054F0000246012F94F86030676D2168009308BF61
:105500000132434607FB0511A06CFEF7ABFF2046B6
:10551000FFF73EF90135A36A9D42D2D32046FFF73B
:1055200037F90028B7D000254FF0FF384FF6FF734A
:10553000C1462F46C4E90B53A36A9F4241D3A5EB52
:105540000805012D60D84FF6FF72236B934270D18E
:10555000934DB2E704F15008DDE7636DA26C20685B
:10556000D2F814C003A9052203FB0500E04703A8F5
:10557000FEF742FF022812D0D84518D109F10102E6
:1055800094F86030606D2168009300FB051104F110
:105590005003A06CFEF766FF2046FFF7F9F8A36AF8
:1055A0000135B5FBF3F2013703FB12557CE72946C1
:1055B0002046FFF7F4FAB0F1FF3F08BF4846421C0F
:1055C000DEE7636DA26C2068D2F814C003A905223F
:1055D00003FB0700E04703A8FEF70EFF824603A87F
:1055E000FEF7E2FEBAF1010F0CD8484538BF276339
:1055F000804528BF8046854238BF05468146E36A1C
:105600000133E362013797E74FF6FF730025236309
:10561000A36A9D4297D2676D2068A36C05225B69DF
:1056200003A907FB0500984703A8FEF7BDFE013557
:10563000EEE7A26C676D2068556903A9052207FB98
:105640000300A84703A8FEF7AFFE616D2268236B35
:10565000544D01FB0323143363634FF0FF332A4699
:10566000A3636FF001010DF10B032046FFF736FE37
:10567000002857D1AB68A363A56B20462946FFF7E6
:10568000A7F8E06320B9A16B2046FFF7E2F8A0631A
:1056900029462046FFF7DDF80546636B9D4243D15E
:1056A000236A656D2046A5F11402DD1CB5FBF2F5F9
:1056B00003EBC5050335B5FBF2F5FFF7A4F8AB1C0A
:1056C0009842814642D2216B2046FFF749FA0126D3
:1056D0008046033504F1500A731E994515D8236896
:1056E000676D052207FB0837A36C03A95B69384681
:1056F000984703A8FEF758FE94F8603002460093DE
:1057000039465346A06CFEF7ADFE41462046FFF7F2
:1057100027FA0136B5428046DED1234D284609B02E
:10572000BDE8F08F636BA6E729462046FFF750F8E7
:10573000E36B294603440746E3632046FFF789F8F5
:105740000546002FA9D1C4E90E07A6E73046FEF7AB
:10575000FEFF164D616BA36B994201D04B1C01D12A
:105760000025AAE62846FFF7A5FD0DF10B0301224F
:1057700029462046FFF7E2F930B1D5E900129DF83D
:105780000B303046FEF772FFA9684A1CE3D1696806
:105790002046FFF75EF80146DDE700BF03E000F0BA
:1057A00016E000F0B410002013E000F00C1100200F
:1057B0002DE9F04F354C85B0E369019003F4803357
:1057C000029341F671334FEA820BE363012241F207
:1057D0000C038A46074689465E46E2500EB93046BB
:1057E0002FE007F5005525F4FF5525F01F056761EB
:1057F000ED1BE269B54228BF3546520735D4D9F8CA
:10580000001009F10402A161A5F10408B8F1000F2C
:105810000ED1042241462261212007F001FC80B90B
:10582000212007F0FDFB60B92F44A944761BD5E782
:1058300008210846039207F0F3FB039A78B104238A
:10584000236142F20C020121104B9950029A0AB1D5
:105850000022DA63431C0BD070B10D4809E052F806
:10586000041BA8F10408A161D0E74FF0FF30E8E77E
:10587000084805B0BDE8F08F5A465146019807F038
:105880009AFB0028044808BF0020F2E7000003400C
:1058900024E000F021E000F010E000F02DE9F043FA
:1058A00085B088466946044681E80C000C9EBDF828
:1058B0003470FFF75DFB4FF6FE7905460DB14445A8
:1058C00005D94FF6FF74204605B0BDE8F0832B7A6A
:1058D0009DF804209A421ED10099686807F06BFB7E
:1058E000C8B9002EEFD02B69AA8AA3B14A4509D1C5
:1058F0000290ADF80C0002A9984760B9029BBDF870
:105900000C2043B1974206D13A461946304607F07B
:1059100052FB0028D7D001342D68A4B2CEE7000096
:10592000F0B5354C85B011464FF486701F461646CB
:10593000FFF77CF9236925462BB94FF48370FFF7F5
:1059400075F905B0F0BD002F08BF082E21D16A46B9
:105950000221206802F052FB636860615B7A04F107
:10596000180123769DF800300220DA1F534253417C
:10597000627E63F30002029B6276E361BDF802304F
:1059800063832369984701220021206802F03EFBCF
:10599000D7E7002F08BFB6F5801F03D100210120F3
:1059A0009847CEE7002306F4C052134309D04FF4C2
:1059B00080714FF48170FFF739F9236900210320CA
:1059C000EEE7002306F44072134308D001214FF4A0
:1059D0008170FFF72BF92B690021FF20E0E70023FE
:1059E00006F0A062134319BF012140F201103146B5
:1059F0004FF48370EDE700BF401500207FB5022310
:105A00008DF80C30064B5A8B596903320292186894
:105A100001AA02F0F7FA019807B05DF804FB00BF95
:105A20004015002008B500214FF48570FFF7FEF8FF
:105A30000022044B03211A6118680122BDE80840C6
:105A400002F0CCB84015002013B50D4B01281B887F
:105A50000C4CADF80430ADF8003002BF02238DF8D5
:105A60000430042301A9206808BF8DF8003002F03B
:105A700037FA6946206802F053FA02B010BD00BF41
:105A800050D000004015002037B50022114C437A59
:105A900000926060D0E90021206802F04CFB238C6A
:105AA000DB050CD563680C4D1A7A2978914206D033
:105AB000012A06D0022A08D063681B7A2B7003B033
:105AC00030BD206802F0F2FAF6E7206802F006FB2B
:105AD000F2E700BF40150020190700207FB51A4CDF
:105AE0001948637A0133DBB2272B88BF2523637201
:105AF000FFF7CAFF257BA27B144C15494FF40073B6
:105B00000232206802F05AFA6368124A5B7A05F0A2
:105B100001052846D65CFFF797FF42F2107300227A
:105B20000293012300928DF80C30314602AB2068BD
:105B300002F058F828B1FFF775FFFFF7CFFF04B068
:105B400070BD054B2361FAE71C01002040150020C1
:105B50002901002031D20000A966000038B50D46A9
:105B600011462C680144A41A224607F033FA2C602F
:105B700038BD00002DE9F84F9146514C514A524E24
:105B8000A41A524A3368144424F4FF54C51A504FDF
:105B900024F01F04A54288463D6073D34B4403EBB9
:105BA000050AFFF713F908B9FFF708F9824569D22A
:105BB000306800EB0904B4F5806F03D98222454BAD
:105BC0001A705DE0DFF824B141464A46584407F0B8
:105BD000DFF9414B3460D3F800A09846BAF1000FCA
:105BE0001DD1B4F5A27F4BD33C4A0BF59A730BF54C
:105BF000A27B53F8041B5B4542F8041BF9D13748DC
:105C0000FFF704F910B9334B8422D9E71022FF21A2
:105C1000334807F0C8F9334A05F59A73136004F066
:105C2000030931482C44A4EB09040440BAF1000FE5
:105C30000BD12840C0F500512144FFF757F9C8F8AF
:105C4000004048B1234B8522BAE7A24504D2A4EB19
:105C50000A010AF50050F0E732682449A2EB090274
:105C60003868FFF751F9044632683B68A2EB090235
:105C7000134415491D483B60FFF770FF002CE1D12C
:105C8000BDE8F88F1A4B5B68B3F1827F114B12D2DB
:105C9000414600201A78C144894502D10028EFD03E
:105CA0008EE711F8016BFF2EF6D00120A54234BF1C
:105CB00087228322F0E7A54234BF872283227FE731
:105CC000FC00002010000020381500203F0D0100CE
:105CD000640B0020610B00203C150020D80F002031
:105CE0006C120020E80F002000E0FFFF38110020B8
:105CF000E4010020EFF3108072B67047054B5B693A
:105D0000C3F38512827003F03F021B0B42700370D5
:105D1000704700BF00C0074037B5044601A8FFF731
:105D2000EDFF9DF80630012123804FF480730020A1
:105D3000084A638093680A3303F01F0301FA03F3F0
:105D40006360956CD36C40EA0502C4E9022303B09A
:105D500030BD00BF0080E00FEFF3108072B67047D7
:105D600000B962B67047000010B5034CA01DFEF7E5
:105D7000F1FF0023236010BDB80F002010B5094CBF
:105D8000B4F80710A079FEF7D1FFA368B4F80D109E
:105D9000054AC3F30F239384D184FEF7A9FF0023A0
:105DA000236010BDB80F0020BC060020034B044A3E
:105DB0009979117500221A60704700BFB80F002052
:105DC000BC060020FFF7CCBF08B5C3680020984789
:105DD000024B1868BDE80840FFF7C2BFB00F0020B3
:105DE0002DE9F04F984F89B03B78064689460392DB
:105DF00003F0FF0B002B37D1FEF7E8FF8246FEF7DA
:105E0000DDFFBAF1000F00F01381904BA0F50055B3
:105E1000D3F80080C3F800B08D4BA5EB0A0593F8CA
:105E200040101C4600297FD01A68924540F000813E
:105E30005A68954240F0FC809968864A914240F049
:105E4000F780DA68062A40F0F38040F26C72196A33
:105E5000914240F0ED80996C7F4A914240F0E88099
:105E6000C3F824B001233B70794D95F84030002BE6
:105E700000F0DE8046F48028784E012105F14800CC
:105E8000FEF77AFC06AB324641462846FFF726FA73
:105E90000446002840F0D3809DF81830032B00F012
:105EA000CE80022B00F0CE803769A86CFFF78CFF04
:105EB000002C40F0BD80039B1B78BB42C0F0B88033
:105EC00095F840300293002B00F0B2800121644825
:105ED000FEF752FC0DF11303604A41465C48FFF7A0
:105EE000FDF9044698B99DF81330012B40F0178155
:105EF0003369BB42C0F00D81D6F804B0DFF850A181
:105F00000097009ADAF84830002A40F0B180504BF0
:105F1000986CFFF759FF002C40F08A80039B1F709C
:105F2000029809B0BDE8F08F582203F11000D3F8B1
:105F300044B007F038F840F26C732362454B04F12B
:105F40000800A3600623E360C4F844B0C4E900A5D8
:105F5000FEF7FDFB404B04F15000A364FFF7DCFEAD
:105F600000286AD1626D002A67D06368B3FBF2F340
:105F7000A36294F85330002B5AD00023656D84F847
:105F80006030002D54D0A36A002B51D02268B2FBA0
:105F9000F5F305FB1323002B4AD1D4F804A0BAFB78
:105FA000F5F305FB13A3002B42D12948FEF725FE8C
:105FB00082453DD340F63472236ACC3B934237D8B6
:105FC000B5F5007F34D303212548FEF7D5FBD4E98E
:105FD0000001A36C1B6898470546A36C0220DB6890
:105FE0009847D5B941461A48FFF73CFA1D4B05467C
:105FF000984204D141461648FFF734FA054665B980
:10600000636D1348A3F11408E36A03FB08F8FEF775
:10601000F4FD154B804538BF1D46B5FA85F3A06CDD
:106020005B0984F84030FFF7CFFE002D3FF41AAF34
:106030000023039A0293137072E7002398E7002766
:106040000A4C32E7042730E71C100020F803002038
:1060500020100020EC0F002014D200008810002037
:106060006810002013E000F002E000F00BE000F008
:106070005B69012205A9584698472C49059B096888
:10608000C3F3D312914246D103F07F03012B30D9E1
:1060900005A8FEF76FFA4FF004080646009B9E42E3
:1060A0003BD8B208D84432D0AB6C49465B69404615
:1060B000984726F0030306F003020192984499449E
:1060C000019B6BB1DAF8483001225B6906A94046B2
:1060D00098474846019A06A906F05AFF019B994441
:1060E000009B59469B1B50460093FEF7B2FB83462C
:1060F00007E7DAF8483002225B6906A95846984754
:1061000006A8FEF737FA4FF008080646C6E70196DC
:10611000D6E7074CFBE6074CF9E6074CF7E6074CD9
:10612000074A022B08BF1446F1E600BF8810002082
:1061300011E000F022E000F023E000F00BE000F0BE
:106140000CE000F02DE9F04106460D4614460C4FD8
:106150000CB9BDE8F081EFF3108872B623462A46E9
:1061600031463846FEF7F1FF03464046FFF7F8FD9B
:10617000002BEDD0E41AA4B21D440026E8E700BFCE
:10618000940E0020002313B501F1080421461A469D
:10619000ADF80430ADF80600083151F8100C70B9B4
:1061A0000BB1ADF80420042201200DEB02010834EC
:1061B000FFF7C8FF54F8101C39B902B010BD51F8F0
:1061C0000C3C1A4492B20123E6E734F80C2C002070
:1061D000EDE700007FB500230130CDE90433064B25
:1061E000CDE901016946042000930392FFF7CAFF3D
:1061F00007B05DF804FB00BFC60100202822136829
:1062000010B5B3F5804F0ED2EFF3108072B60024B4
:1062100007490B780C70FFF7A3FD3BB1BDE81040B8
:1062200013681B6A18474FF4817010BD1846FCE7CD
:10623000B40F002001282DE9F34740F03A818B8804
:10624000012B40F038810B681B7813BB9C4A9D4C96
:1062500013609D4A13609D4A13609D4A13609D4AD6
:1062600013609D4A13709D4A13609D4A1360227803
:10627000022A01D1FFF7C2FF012323700024994BAA
:106280001C70994B1C70994B1C70204602B0BDE8E5
:10629000F087032B40F0FA80944B8A4E1C78002C38
:1062A00046D13378002B00F0E5808B4B1B78082B10
:1062B0007CD1834A136890466BB928252B68B3F5C7
:1062C000804F5ED34FF4017041F20803984200F012
:1062D000D38080242CE013F003070EBF2746C7F1BC
:1062E0000407FFB203EB070ABAF5806F00F2C8801B
:1062F0007F483A461844FF2106F055FE774B724A14
:10630000C8F800A015681A68994615445544DFF886
:10631000C4A125F4FF55DAF8000025F01F058542D9
:106320000BD9291A00F50050FEF7E0FD18B18524BD
:1063300000233370A9E7CAF8005028231B68B3F57F
:10634000804F1BD21B6BB3F5804F17D21D69684A73
:10635000D8F80030D9F800100020A8470546D9F831
:106360000030D8F8002056491344DF1B6048C9F8B4
:106370000070FFF7F3FB002D9FD0D8E74FF4817535
:10638000EDE7FDF785FF00289ED12B680190B3F55E
:10639000804F07D21B6BB3F5804F03D29B6901215D
:1063A00001A898470122504B1A70C1E7002B65D015
:1063B0004C4B1B78002B8CD0494F3B6843B9444B66
:1063C00010224C491868FEF79FFD0028B0D0AEE7B8
:1063D00013F003021CBFC2F10402D2B203EB0208A5
:1063E000B8F5806F4CD84448FF21184406F0DBFD17
:1063F000424A434BC7F800809B1A424A1344334A2F
:1064000023F4FF53156823F01F03AB42914639D89C
:10641000A844FEF7DBFC08B9FEF7D0FC804533D278
:106420003B68DFF8B0801D4425F4FF55D8F8000024
:1064300025F01F05854209D9291A00F50050FEF7FD
:1064400055FD00287FF473AFC8F800503A682A4918
:10645000D9F80000FEF758FD0546D9F800303A6833
:106460001F4913442448C9F80030FFF777FB002D7B
:10647000A5D05CE781245BE7862459E7842457E7AD
:10648000822455E7872453E7832451E7042B14D152
:10649000132302211C4C637020462170FEF71CFC64
:1064A0001A4A1B4B128905329A801A4A1A6062787E
:1064B0009A710024E9E60D24E7E60624E5E600BF2C
:1064C0005C0B0020620B00202C170020640B0020C6
:1064D000E80F00203C150020C0010020680B0020C0
:1064E00038150020600B0020CD010020610B00203A
:1064F0005C070020D80F0020381100201000002079
:10650000FC0000203F0D0100CC0F0020BC06002045
:10651000B80F0020A56B000028231A6810B5B2F54B
:10652000804F0ED2EFF3108072B60124074A117823
:106530001470FFF715FC39B9BDE810401B68DB6922
:1065400018474FF4817010BD0020FCE7B40F002005
:106550000B4A08B5937E4FF0005443F04003937606
:106560000022084B1A70084B1B782BB1FFF7D4FFA1
:10657000064B2360FEF7A8FC2360FEF7A5FC00BFD6
:10658000BC06002018070020CD01002002020FF0F9
:1065900010B5134CA37E5B0621D4FFF743FA40F2FB
:1065A000E24225202168A38C02FB031294F84F10CD
:1065B0002260A27A0A4492FBF0F100FB11220A2128
:1065C000A272228901322281626801FB0323636087
:1065D000238B5A1E228313B90820FFF7B9FF10BD81
:1065E000BC0600202DE9FF41294C40F6010021891D
:1065F000FEF71CFBA37E13F0400242D143F00103DF
:1066000003F0FD0362F38203224AA376136823B1E9
:1066100021899288914200D19847A37A1E4E234443
:1066200093F82A301D486375FFF72EFAD4E9005419
:10663000736864085B7A1A4A2F1B012012F80380E2
:106640006435FFF701FA00970027254401246A46C4
:1066500041463B46306802958DF804708DF80C7009
:106660008DF80D408DF80E4001F0C0FA0546224627
:106670003946306801F0CAFC35B1FFF789FFFFF7F2
:10668000B1FF04B0BDE8F081064B3361F9E700BF0C
:10669000BC060020B80F002040150020C8060020CE
:1066A00031D200000D68000002282DE9F0411FD012
:1066B00002D8012807D0FEE7032800F09C80FF28BD
:1066C00000F09980F7E74D4C237B980707D5FFF73B
:1066D000A9F9FFF703FA237B6FF341032373237BAD
:1066E000990701D4DA0764D4BDE8F041FFF7F6B9A1
:1066F0004B784C68DB077ED5227802F00F07032F1A
:1067000059D0052F77D13E4904F108008B7B03F067
:106710000103B3EBD21F4CD10622083106F04BFC2B
:106720008046002845D1FFF77DF9FFF767F9354D21
:10673000414606465C22284606F035FCAB7E2F8398
:1067400043F02003AB76627E237E012743EA0223D7
:10675000AB84627F237F04F11E0043EA0223EB84B3
:1067600094F82330C3F3040385F84F3094F82330B2
:10677000C3F3421385F850301B232B85FEF7EAFA4A
:10678000D4F80E30E27CEB60A37C2E6043EA022357
:10679000227D2F7543EA02432B6195F84F30607DCF
:1067A000AB72E18A3944FEF7C1FAFFF71BFF164BC3
:1067B0001F70BDE8F081124D04F10800AB7B03F0BF
:1067C0000103B3EBD21FF4D1062205F1080106F054
:1067D000F2FB0028EDD1094C4FF4007394F83620F9
:1067E00004F135010232286801F0E8FB237B43F015
:1067F00002032373DDE7FFF715F975E71C0100209D
:1068000040150020BC0600201807002002282DE9B2
:10681000F7430F460BD003D8012800F0B281FEE702
:10682000032800F0B681FF2800F0B381F7E748782D
:106830004E6810F00104BA4D61D14FF0FF3140F6BF
:106840000300FEF7F3F92646AB7EB64C13F0200F9B
:1068500012D0696D6FF34513AB76002900F09F806D
:10686000237895F8582043F0030323706270A01C2E
:1068700006F08EFB00236B65AB48FEF71FFA003075
:1068800018BF0120AA7E237860F34102C2F30011F1
:10689000AA7661F38203C2F3C00262F3C30360F31A
:1068A00004132370218840F60200FEF7BFF96278D6
:1068B000DFF8988202324FF400739A49D2B2D8F8C6
:1068C000000001F07BFBAB7E7C68D90709D56FF334
:1068D0000003AB7600236B60FFF790F82860FEF7AB
:1068E00007FA4EB1237803F00303022B00F0318145
:1068F0006DD8012B00F02C8103B0BDE8F083318806
:1069000040F60300FEF792F93378A97EC3F3001333
:1069100096F8008063F38201A976C8F3C003C1F33F
:1069200000118B4206D108F00303022B05D019D8C1
:10693000012B31D00026344615E0A146767896B179
:106940007A48848AFEF7BAF9201A80B2B9F1000FAA
:1069500004D0022892BF0020023880B286428CBF49
:10696000002401242646AB7EC8F38008C3F3C0028E
:10697000904507D082F0010262F3C303DBB243F01B
:106980002003AB76002C3FF45FAFAB7E81F00101BA
:1069900061F30413AB7657E74FF00009CEE795F8A3
:1069A0002830A21C0DF107015F48FEF739FCC0B288
:1069B00058B19DF80730002B0CBF0122022223782A
:1069C000607062F30103237056E70122F7E7A378B2
:1069D000022B65D011D8002B4DD0012B38D0544A52
:1069E000127822B1162B7FD0182B00F08C80072252
:1069F000504802210270437027E00C2B18D0142B52
:106A000056D0082BEBD1B8F8201054F8035FC8B269
:106A100005EA0002474801F47F4142EA01050446C5
:106A20000921002304F8011BC0F8015063600CE049
:106A300040484FF0FF3203700123827043700222FE
:106A4000037100230621C2704371FEF745F953E735
:106A5000617A237A384A43EA0123938013463749FF
:106A600043F8061B54F8031FC2F80610A2889A8048
:106A7000A2799A7140E7627B237B2F4943EA022384
:106A80008B800B462E4A43F8062B54F8032FC1F88F
:106A9000062062685A6022891A81A27A9A722BE7CC
:106AA0002A89254B05329A80264A1A60E278E0E767
:106AB000B4F80530B4F80320DB08934228BF13462E
:106AC0002B8515231B4800216FF004046FF027026B
:106AD00003700723817081714470C2700371447127
:106AE000C27103720921B0E72279E378114813409B
:106AF00003F00303022B18BF012317224370027017
:106B000083700321A1E76279A1790B4B42EA01224C
:106B10009A800D4A1A60D4F80320C3F80620EBE6E9
:106B2000BC06002034190020940E00207C0D0020AB
:106B3000AC0F0020CC0F0020B80F0020695D0000D2
:106B40007D5D0000A56B0000AD5D000040150020DC
:106B500000261248A51C818AFEF7B0F8081A64784E
:106B600080B226B1022892BF0020023880B2A3B2C0
:106B700083423FF6C1AE2A4631460848FEF7E5FAA1
:106B8000BAE6074B9B7E9A073FF5B6AE5B073FF52B
:106B9000B3AEFFF7FDFCFFF725FDADE67C0D002051
:106BA000BC06002008B5024B9879FFF7D1FC00BF66
:106BB000B80F00202DE9F04F01288BB040F038814C
:106BC0008A88002A00F036819C4D95F800B0BBF110
:106BD000000F00F031819A4B1C7898465CB99948B7
:106BE000067882463EB9984E30681718B7F5806F20
:106BF00005D982241C7020460BB0BDE8F08FDFF869
:106C000064920968484406F0C3F9BBF1020F37608B
:106C100035D0032FEFD98D4F3846FEF783F93B78F7
:106C2000D9F80020012B8A4B5AD19A425AD1BB681D
:106C3000DB035FD502232B70FFF76EFC28231B6854
:106C4000B3F5804F07D21B6BB3F5804F03D29B681F
:106C500003A90020984703987E4B7F4A186020F4D0
:106C6000FF5323F01F034FF400511360FEF73EF96A
:106C700088BBFEF7EBF840BB2B78022BBBD17749E2
:106C8000774F08783A6810F0F70F3368894640F07C
:106C9000A980704903F0030B0D681D4415446E4B29
:106CA000A5EB0B0525F4FF55186825F01F05854257
:106CB000019322D9291A00F50050FEF717F9019B1C
:106CC000D0B1852488F8004095E74FF40051FEF7D5
:106CD0000DF90028D0D0852388F800301C468AE7BB
:106CE0009A4207D0842388F8003098F80030002BAF
:106CF00081D0F1E78623F6E71D6028231B68B3F5F2
:106D0000804F6CD21A6BB2F5804F68D23368156928
:106D1000A3EB0B03534A39680020A84705463268A5
:106D20003B68A2EB0B02134447494E483B60FEF719
:106D300015FF002DC5D199F80030002B7FF45BAF13
:106D40003B687F2B7FF757AF02A903A8FDF780FAB6
:106D500010B9039B89F8003099F8003013F0F70F51
:106D60003FF449AF28252A683B68B2F5804FA8D286
:106D7000126BB2F5804FA4D20021D2F80C900846D5
:106D8000384AC84700289CD13B68374F3360324BA4
:106D90001860364B7B602B68B3F5804F91D29B6AAD
:106DA0004FF400713248984700288AD12A68336826
:106DB000B2F5804F39D2D56A39462A4A2C48A847BD
:106DC0000546326820492748FEF7C8FE40F20323F3
:106DD0009D421DD040F201239D4224D10BE74FF488
:106DE00081759CE71A443A6028221268B2F5804FF8
:106DF00012D2D56A1C491B4A1D48A847054632686D
:106E000011491848FEF7AAFE40F203239D4206D11D
:106E100001238AF80030EEE640F20225EFE740F267
:106E200001239D4287D080244CE740F20225C8E729
:106E30000024E0E60D24DEE68124DCE6620B00207F
:106E4000610B0020600B00205C0B0020E40100209F
:106E5000EB17A6032C1700203C150020C0010020D2
:106E6000680B00205C0700206C0B0020755B0000A5
:106E70007C0B0020FEE700000048704700F049024C
:106E8000084B1B6F03F00703022B04D0032B06D023
:106E9000012B02D0FEE704487047044870470448BD
:106EA000704700BF00800040C0EA2101002D310181
:106EB00000F0490208B5FFF7E3FF044B1B6FC3F373
:106EC00001330133B0FBF3F008BD00BF0080004088
:106ED000044B054A9A60D3F8882042F47002C3F844
:106EE0008820704700ED00E0004000000000000036
:106EF0004FF040232DE98048D3F89430ADB013F023
:106F0000400F24AF40F01E834FF00053002238465C
:106F10001A60FEF707F8FDF799FF0546002840F0D4
:106F20001A833846FEF7EAFEB94B9B6DDE0318D490
:106F3000B84A136823F4FF0323F4FE4343F4BC135D
:106F400043F4A063136052F8043C23F4704343F409
:106F5000404342F8043C52F8043C43F4E06342F8F6
:106F6000043C9DF89130012B0FD19DF8903063B90E
:106F70004FF000531B68A84B1B68A84B1B68A84B1D
:106F80001B68A84B1B68A84B1B68A84B1B6F03F022
:106F90000703032B3CD045F60E029D4B0221C3F89C
:106FA000802041F22802995042F228020121995092
:106FB0009A6DD503FCD49E4A9E491A619E4A9A61F5
:106FC0001A6A22F00D021A629A6A22F0330242F023
:106FD00001029A628E4A1346906D31EA0000FBD19D
:106FE00041F22801022050509A6D5400FCD41A69D5
:106FF0004FF0004122F4700242F400121A6141F293
:107000001802995042F22802022199500121995008
:1070100041F228034FF001087D4D844CAE6A874849
:1070200045F80380FDF762F9236F06F0020643F48A
:1070300080632367236F23F0070343F00303236771
:10704000FFF738FFFDF752F9FFF734FF7C4A236F53
:10705000904294BF0020012023F4806343EA802300
:1070600023671EB942F2280345F8038001236F4AC3
:10707000744DC2F880326B60734B04241B6C2CAAD5
:107080002B66002302F8984D08A935200893FEF7D7
:10709000A7FE06238DF81730089B8DF8164013F4D1
:1070A000803F0AAC00F0F7822B6E8DF828302B6EF3
:1070B0008DF829302B6E8DF82A302B6E8DF82B3001
:1070C0002B6E8DF82C302B6E43F060038DF82D3035
:1070D0009DF82E3043F001038DF82E305B4B5C6041
:1070E00000244FF480715A4B5A4A5961C3E9002277
:1070F0009A601C82584A594B3846C3E900229A606C
:107100005961202221461C8205F04DFFB421012344
:107110008DF8931052498DF8923025918DF89A3060
:107120005A218DF8A230402308228DF89B108DF84B
:10713000A3304C494C4B38468DF891208DF899205E
:107140008DF8A1202791299300F0C2FC4748484BB5
:1071500021460360474B484E436000F029FD2AA3B7
:10716000D3E900233060CDE900234FF0FF334FF027
:10717000FF3200F0D9FE02224FF0FF31306800F0FC
:10718000DDFE3E4B39462493306803F500332694E8
:10719000259300F071FD3A4D394930682C7000F0AC
:1071A000F9FE10B10134032CF6D1284C306800F000
:1071B00065FFB4F900202978306800F099FC014699
:1071C000306800F0D7FE6468DFF8C0A0002C40F003
:1071D0007C825046FDF7B4F8B37B64F30003B373CD
:1071E0001022284B284C83F82123002183F82223E6
:1071F00004F10A0083F8262383F8252383F8232348
:1072000046E000BFAFF30080081B1005000000003F
:1072100000C0004034C0004000400020008000203A
:1072200000C000200000012000400120008000403C
:107230002008B00B030001403C8C8C0300B4C40454
:1072400080F0FA0200C001A80080E00FD001002009
:10725000940E0020AC0E0020940D00207C0D002028
:1072600068D00000F0D00000ACD000007015002005
:107270002159000064150020401500203C009400B6
:107280001200002000E100E01C0100204815002051
:1072900083F8202383F82423562205F084FEB8487F
:1072A000B84B4FF49072C4E90003252363720123A5
:1072B0003284B54A237213700023DFF87083B34D14
:1072C000C8F800301B232B801E232CAA02F89B3DFC
:1072D00014A93620FEF784FD20232CAA02F89C3D39
:1072E00039463920FEF77CFD80BBA94B9DF815205F
:1072F00018681B7924903B71002A00F0EF811B2A4B
:1073000028BF1B22531D8DF8143014A9531C0DF1F6
:1073100095008DF8933005F03BFE1CA8FDF710F8A2
:107320009C4A9DF8143012882CA9FA529A1C51FAE2
:1073300082F200211C9802F8201CBDF87410093359
:1073400042F81F0C22F81B1C8DF8143020232CAAA5
:1073500002F89D3D1CA93A20FEF742FD48B98E4B2C
:107360001A889B78ADF870208DF8723003238DF861
:10737000133000224FF00209884B8948C3E90022EC
:10738000884B80F804900360FCF752FF8648874BD7
:1073900080F80490036010230372FDF751FE8448C7
:1073A000844B80F804900360834B80F80890C3609E
:1073B000A0F81090CDE900394B4690E80600143053
:1073C000FCF712FF9DF81510002900F0988114A811
:1073D0004FF01009FDF75EFE7848794B80F8049075
:1073E0000360FCF725FF7748774B4FF6FE7B036081
:1073F0000823764AA0F810B0C26080F804900372A7
:107400000393FDF71DFE7248724AA0F810B00260A7
:107410000C224FF0020B02726F4A80F80490C26097
:10742000FDF70EFE6D486E4A039B02606D4A80F8C0
:107430000490C260038280F808B0FDF701FE6A483C
:107440006A4B80F804900360694B80F808B0C36011
:1074500001230382FDF7F4FD6648674B80F8049032
:107460000360664B80F808B0C3604FF6FE7303827A
:10747000FDF7E6FD6248634B80F804900360624BC1
:1074800080F808B0C3604FF6FE730382FDF7D8FDA5
:107490005E4B424A1A604FF6FF729A809DF81420A4
:1074A000202A05D8931DA3733946594805F070FD6D
:1074B0009DF81320202A06D8931D84F836301CA985
:1074C000544805F065FDFEF7ADFA237BB27B43F02F
:1074D00001032373637B02F0010203F0F00362F304
:1074E00086136373A37B0BB90623A373BAF8041046
:1074F000494BB068C4F80F009980042194F83530E6
:1075000061F3030362F3861384F8353094F8363060
:1075100013B9062384F83630B068BAF804203F4B1C
:10752000C4F837009A80FEF7D9FA3D4C3D4B1B78E2
:10753000002B40F024813C4A136923F004031361BB
:1075400030BFF3E74FF000531A68022A7FF4DCAC37
:1075500000221A60E5E49DF89030012B40F0938002
:10756000446BFEF7D9FF269B5B0761D5FDF76EFCE8
:1075700028231B68B3F5804F71D3FEF73FFED0E49C
:10758000D6BE898E55555500AC0F0020C201002093
:107590007CD100008CD100008FD100001C0700209E
:1075A000EC16002093D100005C05002096D100006D
:1075B0003007002099D1000052D000000C170020A5
:1075C0009CD10000B4050020ADD100003562000060
:1075D0000C060020BED10000B56B00005404002052
:1075E000CFD1000034D1000064060020E0D10000BB
:1075F00030D20000AC040020F1D10000514F000057
:10760000FC03002002D20000755200002407002075
:1076100031010020590100202B01002053010020DE
:10762000F00100201807002000ED00E0F403002026
:1076300084B1FDF7C3FB84420CD2FDF7BFFB04F11C
:107640004003834206D8636923B12046FDF7DEFB81
:1076500000288BD105F59A70FDF7D8FB01E05B6A35
:1076600098470446FEF7CAFD002C3FF45AACFDF7DC
:10767000EDFB0446FDF7EAFBB64B986023689D4698
:10768000636898474DE400F59A70FDF7BFFB00284A
:107690003FF447ACEBE70DF1170221462C20FEF733
:1076A0009FFB00283FF41CAD0DF1160207A93C20FA
:1076B000FEF796FB9DF82E3020B19DF81C2062F35A
:1076C000000309E560F3000306E52068B060A288C6
:1076D000A379AAF804208AF8063081E50E238DF8F4
:1076E00014300A238DF893309B4B1A68CDF89520FF
:1076F0005A681B7ACDF899208DF89D300DE6092146
:10770000954865E6EFF3108672B600230DF1190176
:107710001A469248FDF784FD3046FEF721FB9DF89E
:10772000193013B10023C8F80030D8F80020EFF367
:10773000108672B6C2F501739BB222440DF1190195
:107740008648FDF76DFD03463046FEF709FBD8F885
:10775000000018440328C8F8000010D9B4F80090BD
:1077600009F1040398420AD306D860880027042848
:107770000BD0062800F083810023C8F8003077483A
:10778000FDF79CFA0028BDD1D5E6227909F1FF3337
:10779000082A6F809BB200F0E9801BD8042A704E43
:1077A00037D0062A4CD0022A1AD1022B40F063812E
:1077B000B4F805700022B7F5007F28BF4FF40077BA
:1077C0000323114602203370A6F80170FEF702FD74
:1077D0002F80D1E7102A00F0FE8003D80A2A6ED04D
:1077E000062292E0122A00F09980522AF8D1B4F8C9
:1077F0000500FDF7BDFB0028BED0037B5B07BBD5B2
:10780000A9F1030292B25749B4F80500FDF7FEFB57
:10781000B2E7042B79D1B4F80570B8B2FDF7A8FB34
:1078200058B1027A4168022A0CBF012302230520C5
:1078300073703070778003205FE06F800A2264E00D
:107840004FF00203DFF820B1A9F10702B4F80500F8
:10785000B4F8071092B28DF844300BF10203009394
:10786000CDF840B0019210AB0CCBFEF717F84FF6F5
:10787000FF7A5045814604D16368C3F30F236B80C0
:10788000DCE74FF00203CDE900778DF83430CDF816
:1078900030B001300CAB0CCB514680B2FDF7FEFF8F
:1078A000072350451CBF00F1FF3080B23370A6F8AB
:1078B0000190A6F803000022042011461DE0022BCF
:1078C00040F0D980B4F80500FDF752FB00283DD008
:1078D000037B990714D52B882CAA013B22F88C3DF9
:1078E00010A9B4F80500FDF76BFB024648B90B215F
:1078F0001B4BBDF8242019701099FEF76BFC3BE779
:1079000002226368C3F30F236B800126144B207996
:1079100069881E70587059801A71CCE7B4F8050058
:10792000FDF726FB90B1037B1A0711D5A9F10302DD
:1079300092B20C49B4F80500FDF768FB0246002836
:10794000DFD11321064B19700146D6E70122D8E793
:107950000322D6E700ED00E082D100007C0D00207C
:10796000C6010020F7010020F9010020A9F1050B54
:107970001FFA8BFBBBF1020F02D0BBF1100F7CD1C1
:10798000444BB4F80500B4F8071010930023CDE978
:1079900000338DF844B010AB0CCBFDF77FFF4FF6F2
:1079A000FF73984206463FF467AF2B882CAA043B2E
:1079B00022F8963D09A9FDF703FB024608B16E8047
:1079C000A3E70921344BBDF81A201970911C597096
:1079D0005E8009992FE7A9F1050B1FFA8BFBBBF11C
:1079E000020F02D0BBF1100F47D10027B4F80500F9
:1079F000B4F80710DFF89CA0CDE900775FFA8BFBA5
:107A0000CDF840A08DF844B010AB0CCBFDF746FF8D
:107A10004FF6FF79484506463FF42EAFCDE9007793
:107A2000CDF838A08DF83CB001300EAB0CCB4946F8
:107A300080B2FDF733FF07462B8848452CAAA3F1F7
:107A4000060318BF00F1FF3722F8963D09A930461A
:107A500018BFBFB2FDF7B4FA02460028AFD111211A
:107A60000D4BBDF81A201970111D59705E809F8052
:107A70000999052041E7042247E7024645E7074BFD
:107A800010A910930223CDE912771193FEF77AFB28
:107A900072E600BFF9010020C6010020100000209E
:107AA000FEE7000008B5FFF713FA064A064B074940
:107AB0008B4201D3FCF75EFB52F8040F43F8040B32
:107AC000F6E700BFFCEC000010000020FC000020E6
:107AD00038B50446054D00F06FFA0FCC0FC594E899
:107AE0000F0085E80F00002038BD00BF341A0020C9
:107AF00047F6FF739A4270B553D0032953D82B4BE6
:107B000013F831001D4601284FEAC1010CD10B4486
:107B1000D878013800B220B1596831F9101091427B
:107B2000F7DC0130C0B270BD0B4458680028FAD0B1
:107B3000B0F90040944204DBB0F902409442B8BF6F
:107B400014462822A4F1C80393FBF2F34FF47A768B
:107B5000294449785B421BB29942DCBF01F1FF33F3
:107B60001BB200EBC305EA88AD68013314FB025277
:107B70001BB222EAE27202F5FA729942B2FBF6F205
:107B800004DD00EBC305AD889542EAD200EBC300EB
:107B900030F8040C904228BF1046002808BF01208E
:107BA000C0E7FF20BFE70020BDE700BF341A002078
:107BB00038B504460D46074B186000F03BF82946DF
:107BC000204600F027F8021C18BF0122024B1A7051
:107BD00038BD00BF541A0020581A0020084611462C
:107BE00000F03CB800B10C3001F032B900B10C30FB
:107BF00000F0A8B97047431E012B03D9031F584258
:107C0000584170470120704708B500F06FFB01280C
:107C1000FBD108BD38B504460D46002100F0A8F997
:107C20002946204600F0D0FF00280CBF2046002047
:107C300038BD000010B5044600F026FB3CB1054AF3
:107C4000236C002B08BF1346034A136010BD636BFF
:107C5000FFDE00BFF57B00001800002010B50C46C9
:107C600000F02EFB1CB1BDE81040FFF7CDBF10BDEA
:107C700000B10C3000F098BC00B10C3000F0F8BF3F
:107C8000836A2DE9F04704460F4613B183888B427F
:107C900032D0666A9EB3B3688BB3F3687BB30020BF
:107CA0004FF018098046034647F6FF7AF2684245CE
:107CB00002D8EBB9012020E0B56809FB0855EA8934
:107CC000BA4210D82A8ABA420DD3B5F912205245C9
:107CD0000CD094F86810A4F10C00FFF709FFA3780A
:107CE00083422B4604D908F10108DFE7FF20F6E7BD
:107CF000A780A36284F871000020BDE8F08703200C
:107D0000FBE700002DE9F0473E4E04460F46924641
:107D100001F0B4F9356801F0BFF9B0463A4E0028D9
:107D200063D00023336001F0AFF9A36A3268934255
:107D300003D113B1ADB2BD4261D000F0D7FA012832
:107D400004D0012000F0BCFAFFF75EFFD4E909126D
:107D50002E4803688146002B4CD08B4203D13068FB
:107D600008B1904249D01D68002D43D00868854273
:107D700040D13168126811B1096891423DD059680B
:107D8000204600F065FE054604F17403394620469E
:107D9000A26A00F0B9FCA17894F8713020469942AB
:107DA00028BF194600F069FC65B9636AA26AC9F880
:107DB00000303946012320463260C8F8007000F0D8
:107DC000C5FC0546B5FA85F03321400900F03AF9C3
:107DD0005146204600F050FE0D4BA16A1B68A4F1ED
:107DE0000C0098472846BDE8F087BAF1000F9CD0F8
:107DF00030609AE712680968C2E70025C4E70025E9
:107E0000F0E700BF5C1A0020641A0020601A00200E
:107E10001800002038B504460D46FFF731FF024632
:107E200028B929462046BDE83840FFF76BBF38BD6A
:107E3000F8B50D460646084601F0CEFD2F1C18BFCA
:107E40000127002438461F2100F0FCF838461F2186
:107E50007562B46200F0F6F8182723464FF6FF71FA
:107E6000E868DAB282420BD30C4600230A4A214664
:107E700013600A4A30461360FFF7CCFF2046F8BD76
:107E8000AC6807FB0242D4898C4202D2002CECD0B1
:107E900021460133E5E700BF601A0020641A002084
:107EA0008088704738B50A78054610460C46FFF7BB
:107EB000A2FE88B149780846FFF79DFE60B10A43EB
:107EC000520709D400F012FA430707D42146284686
:107ED000BDE8384000F096BB012038BD0220FCE729
:107EE00000B10C30FFF7DEBF38B5054608780C4608
:107EF000FFF781FE80B14A781046FFF77CFE58B14B
:107F0000042A09D000F0F2F9830707D42146284655
:107F1000BDE8384000F084BB012038BD0220FCE7FA
:107F200000B10C30FFF7E0BF30B4DDE9024500B12D
:107F30000C30CDE9024530BC00F07AB900B10C300C
:107F400000F08ABA70B504460D46164600F0CEF928
:107F500001280BD129462046FFF75CFF38B932468D
:107F600029462046BDE8704000F0EEB9022070BD01
:107F700001F09AB838B5044600200D4601F02AFDFC
:107F800034B104F10C002946BDE8384000F08EBB46
:107F90002046F8E738B5044648880D4601F01AFD3A
:107FA00004B10C340021204600F080FB2946204615
:107FB000BDE8384000F044BB01F00DBD00B10C300D
:107FC00000F0A1BC00B10C3000F0B7BC4FF400735E
:107FD00007B502AA22F8023D0749FFF7F3FFBDF8F3
:107FE0000630B3F5007F05D1022808BF002003B09A
:107FF0005DF804FB0120FAE7681A002008461146E4
:1080000000F0E8BB00B10C3000F068BC38B5154694
:1080100058B100F10C0411B1204600F0A5FC35B1B7
:108020002046BDE8384000F0E7BC0446F3E738BD21
:10803000024B1960024B1860FEE700BF1C000020D5
:108040002000002008B528B9034B1960034B1868BD
:10805000FFF7EEFF08BD00BF1C000020541A0020EF
:1080600010B5044601F056F82378204643F001038A
:1080700023700321BDE8104000F012B900B10C30AC
:10808000FFF7EEBF037810B5DB0704460CD500F010
:108090002DF9012808D1237820466FF3410323707E
:1080A000BDE8104001F01AB8022010BD00B10C303C
:1080B000FFF7E8BF037810B5DB0704460CD500F0E6
:1080C00015F9012808D1237820466FF34103237066
:1080D000BDE8104000F0F4BF022010BD00B10C302C
:1080E000FFF7E8BFF8B51F4603781546DA070646DE
:1080F0009DF818401DD591FAA1F1080A00F09EFAEA
:10810000EB0703D5304601F00EF860B1AA202946EE
:1081100001F010F84CB90122442047F0400101F071
:108120006FF80020F8BD5520F1E7002211461046F7
:10813000F5E70220F6E710B49DF804400C300194F6
:108140005DF8044BFFF7CEBF7047000003782DE9C0
:1081500030485A07044619D5826ABAB16FF38203D0
:108160000370536919684B1C03D0BDE8304801F017
:108170008DB84FF0000BD0E9222303F0080C5BEA26
:108180000C0305D1037843F004030370BDE8308885
:108190004FF4803104F039F9D4E9222302EA000BCC
:1081A00003EA010C5BEA0C03F0D004495A46A4F13F
:1081B0000C0009686346BDE83048084724000020E9
:1081C000F7B506460C46174D39B90A46072104F0A3
:1081D000EDF8C5E9004403B0F0BD0727124B02A833
:1081E0001F600B792B704B79012140F8043D04F09E
:1081F000F9F8019BC2B2D34000F00F0040EA03102F
:108200006870A379094AAB70E3793946EB7023684B
:1082100030466B602379013313623A4604F0C6F8A6
:10822000D9E700BFC01E00B00C6000A8004000A845
:108230002DE9F34BDDE90A67D0E9228904460025E0
:1082400088EA060089EA070101EA030C00EA020B4A
:108250008CEA09018BEA0800C4E9220122F001003E
:1082600006EA000807EA0309194648F0005249F0F7
:108270000803CDE9005503F00BFA2046FFF766FF2F
:10828000284602B0BDE8F08B034A0368002B08BF04
:108290001346024A13607047498100002400002001
:1082A00031F00F0003BF054A01F00F01D368012030
:1082B00002BF23F00F030B43D3607047C81E00B00A
:1082C000032811D8DFE800F00E02070A0022114649
:1082D000012003F0A3BC00220121F9E7012211468D
:1082E0001046F6E70022FAE7704700000F4BDB6804
:1082F000C3F30363013B0B2B0DD8DFE803F0141429
:108300000614141414080A080808032070470420EF
:10831000704705207047064B5B6913F0060F14BFCA
:108320000420012070470220704700BF000002A80F
:1083300000C001A8034B1B6F13F0A00F0CBF01205E
:1083400000207047000002A87FB515462B79B0F8D1
:108350005020012B29681BD18A421ED8891A1A1C69
:1083600018BF01222C7B022C19D0003418BF012425
:10837000AB68AE7B003618BF012602966D7BB5FA5E
:1083800085F56D09CDE9004503F000FB04B070BD33
:10839000022BE3D11A460021E4E70021DFE70023A6
:1083A000E7E700000138C0B202284FF060518EBFED
:1083B00000220D4B53F820200C4B00201960A3F530
:1083C00080531A604FF400124FF080511A60084A2F
:1083D000936F23F0060343F004039367054B196082
:1083E0000423C2F88C3070476CD20000206001A8D2
:1083F000004000A87C1002A8114B1B7813B1062284
:10840000104B1A600022104BC3F88C204FF08052A2
:1084100003F5F0337C331A600C4B1B6F13F4800FA1
:108420000B4B08D1826912F0800F4FF4001216BF77
:1084300008491A600A604FF0605200201A607047C5
:108440006C1C0020786000A8004000A8000002A872
:10845000206001A8205001A870B514468269064624
:1084600082EA04030B405340836108070D4606D59A
:10847000082314F0080F14BF404A414A1360E9076B
:1084800006D5012314F0010F14BF3C4A3C4A136087
:108490006A070CD503F036FB4FF4007314F0040F99
:1084A00014BF384A384A13600422384B1A60AB07AD
:1084B00006D5022314F0020F14BF304A304A13606D
:1084C000E80606D514F0100F14BF00221B22304B13
:1084D0005A6529061ED522062CD54FF400122D4BC5
:1084E0001A60012203F587531A60FDF703FC2A4B3B
:1084F000DB68C3F30363032B06D1284AD36823F058
:10850000F00343F0E003D36040F20122204BDA6233
:10851000FDF726FC15F0600F28D004F0600404EA93
:10852000050140291D4B23D0602913D0202922D1D9
:10853000012217E0184B1B6F5B02EBD44FF40011C4
:1085400096F84430164A1160002BE3D00122154BF7
:108550001A60DFE7F26A72B1116801290BD952691A
:1085600042F00102DA6180220B4B1A61002070BDDB
:1085700040F20112F6E70022F4E700BF4C5000A8D9
:108580004C6000A8245001A8246001A8702002A813
:10859000004000A8205001A8000002A8C81E00B09A
:1085A000206001A8005101A8014B186A02F0D4BA5A
:1085B000004001A8C26A62B11368022B09D9536A4C
:1085C000C3F3072040B1126ADBB25343B3FBF0F0B0
:1085D00070470C38FFF74CBB70470000064BD3F8D0
:1085E00038311B0401D4FFF7E5BF0A78034B044878
:1085F000012A18BF18467047004001A820A10700B3
:1086000048E8010010B5054A4B780C7810881B0625
:1086100043EA044303431360002010BD741E00B0FE
:10862000054803681A0C0B78120413434A7843EA8E
:108630000223036000207047741E00B002F0E0BA0D
:10864000F8B5044600F1680608680D46A0668B88F8
:108650000846A4F86C3001F083FB0746304601F071
:108660002FFAA988204601F02DFCA4F86C0004F133
:108670003C0002F066FE3846F8BD38B5054690F875
:1086800068000C4604280ED001F058FAA04204D825
:1086900095F8680001F052FA0446EC70204601F0AB
:1086A00061FA002038BD0220FCE7000038B590F8E0
:1086B00068200446042A21D0A170826A0AB90020E9
:1086C00038BD90F871208A4208D200258562FFF7F4
:1086D000E7FB01462046FFF79DFBF0E7FFF7CDFFE4
:1086E000074B1B78022BEAD8064B2046196801F08D
:1086F000E9FB04F13C0002F024FEE0E70220DFE7A2
:108700003A00002034000020F8B51D4616460C46FD
:10871000074602F023FB002808BF012087F87000FD
:10872000B1897368B268611A89B2698102FB01314B
:10873000002329606B6002F021FB18B141F6583329
:108740002B81F8BD40F6AC53FAE70000F8B5036A98
:108750000446012B0D46164626D0FFF7C7FD01281B
:10876000FBD194F8707002F0F9FA874206D004F158
:108770007403324629462046FFF7C6FFD4E91D019F
:1087800002F00EFC054688B94FF47A70B4F87C30DC
:10879000584302F04AFC2046FFF7D8FCB4F87E208C
:1087A000034B1A642846F8BD0025FBE70225F9E7CC
:1087B000008001A84FF4807103F00ABE4FF480736B
:1087C00010B9024A13607047014AFBE7701002A813
:1087D000702002A837B50DF106020D4601F044F8ED
:1087E000044688B185B12B7813F0F70F0CD0FDF754
:1087F00081FA074BBDF806201C60064B1A806A8878
:10880000054B1A80FDF7ACFA204603B030BD00BF1F
:10881000701C0020741C00206E1C0020F7B505465B
:108820001446084611B9012003B0F0BD002AFAD061
:10883000022905D80022114601F016F80028F2D0CE
:1088400006888278330402F0070742D40379F81FC0
:10885000414241412173C2F300116173C2F380119F
:108860002174C2F3C001C2F340126174A2740BB947
:1088700095F86230013BE37402F016F9C2B212B30C
:10888000063F012F1FD8144B69465B6DB31F9BB287
:10889000012000F02BFE9DF80100AB6B4000C0B240
:1088A0009DF900600BB131469847E073A673627C76
:1088B000DDF8021005F13C0002F0C2FD012320604A
:1088C00023720020B0E7002080232060E381207223
:1088D000AAE70220A8E700BF004000A8F8B50646B6
:1088E0001446177AFFF79AFF054650B9237A43B129
:1088F00004F1110127723046FFF770FE214602F0A5
:108900006BFD2846F8BDB3FA83F3192B084610B562
:10891000114610D0C3F11902D2B2062A28BF06228E
:108920000124931D9C40A4B2A14228BF214600F01F
:1089300059FD204610BD0022F2E70846118810B507
:10894000B1FA81F119290DD0C1F11901C9B2062975
:1089500028BF062101238C1DA340138000F060FD79
:10896000002010BD0021F5E70121094BD3F8EC20D0
:10897000196352074FF4005148BF042203F5005316
:1089800003F12C03196044BFA3F574631A607047A8
:108990000040004438B54B7805460C46BBB9FFF79C
:1089A0002BFDA378BBB940F6FF72104BDA62E37877
:1089B000ABB940F6FF720D4BDA6560220C4B1A60C2
:1089C00003F5E833402224331A60002038BD1846EE
:1089D000FFF7E8FCE5E72846FFF7C6FFE7E7602278
:1089E000044B1A6003F5D833ECE700BF00400044A5
:1089F0004C5000A84C6000A838B54FF480640020AB
:108A00000A4BD3F8EC5003F503532C331C60084B8E
:108A1000186003F0EBF84FF40052064B1A606A0539
:108A200044BFA3F577631C6038BD00BF004000441D
:108A3000701C00205C600044082310B1024A1360DF
:108A40007047024AFBE700BF701002A8702002A81E
:108A500010B51446064B074ADB6C084623F4F06356
:108A6000136001F093FF204601F090FF002010BD3D
:108A7000004000A8801C00202DE9F041404B044636
:108A80001B788846022B63D902F068F93D4B1B6ABC
:108A9000C3F382139A1E012A58D99A1F5342534195
:108AA000394A16785E40394B3949DD69394BE56200
:108AB0001A68394B1A60D1F8B430384AC3F38123AD
:108AC0001370D1F8B8302189C3F3812353704FF666
:108AD000FF73994204D0324B1B680BB12046984774
:108AE000304F3B68AB423BD02046FFF763FD02F0BE
:108AF000B5FA7DB3296801B1A9682B4B1B680BB18E
:108B00002046984745B32B6833B32B6923B39A6843
:108B1000A2641A685B68E263236426B1234B204693
:108B2000196801F0CFF904F13C0002F007FC3D6048
:108B300002F014F90622237843F0040323701C4B3F
:108B40001A6001221B4B1A70BDE8F0810123A7E7D0
:108B50000126A8E72946D0E70023A364E363DBE707
:108B6000B8F1000FD9D1002EE1D0104B2046196882
:108B700001F0A8F904F13C0002F0E3FBD7E700BFE5
:108B80003A000020004001A8281D0020E01F00B08E
:108B9000004000A8801C00204C5000A87C1C002035
:108BA000841C0020781C0020681C00203400002059
:108BB000786000A86C1C002048220021014804F0C5
:108BC000F2B900BF781E00B02DE9FF418846044687
:108BD000002847D000220023C0E925234FF064126B
:108BE00000254FF6FF7300F10C06C0E9172242661C
:108BF0001D4AA0F8F030838204AF45624573856357
:108C000085653046138047F8045D02F0AFFF3046BB
:108C1000FFF7D2FF6022154B3946DA643046FFF782
:108C2000B9FE626A07464FF0FF313046FFF714FC89
:108C30004FF00052082310461946CDE9005502F0C6
:108C400027FD00F047FF4FB92046FFF7BFF9074661
:108C5000B8F1000F02D008B92046C047384604B02A
:108C6000BDE8F081A061FFDE8C1C0020004000A860
:108C700070B50C46054600F13C060988503002F0FC
:108C800041FB6188208005F1580002F03BFBA18880
:108C9000608005F1560002F035FBE188A08005F107
:108CA000540002F02FFB2189E080304602F036FBB1
:108CB00061892081304602F039FB6081304602F044
:108CC0003DFB002070BD00004FF6FF72B0F8E430AD
:108CD000934211D0094A0A49526E100CC2F3011294
:108CE0000132B3FBF2F30880064A074907481B0428
:108CF000086013600020704703207047004001A8FF
:108D00008C1C0020645001A8646001A80000FFFFD3
:108D100070B505460E461446FFF70CFB00287AD0C6
:108D20004FF40061284603F053FB38B10121084697
:108D3000FEF794FF4FF40072394B1A603146284613
:108D4000FFF768F8064600285AD14FF44062354BC9
:108D50001A6014F0020204D1334B34491B789B0291
:108D60000B604FF44061324B196022B92E4B314AEF
:108D70005B789B02136002F0C5FE4FF4806314F031
:108D8000040F14BF2C4A2D4A14F0400F13604FF00B
:108D90000402234B1A604FF0400314BF284A294AAB
:108DA000136004F01803182B274B2BD100221A62F2
:108DB0002846FFF7FFFC18B104F00100FFF7FEFCA6
:108DC000A20602D52846FFF77FFF284600F074F977
:108DD00098B12846FFF7EEFC78B14FF40011284611
:108DE00003F0F6FA00280CBF03210421002000F054
:108DF00087FB431C11D0154B5860002000F0EAFDA2
:108E0000304670BD200701D50122D0E7E106CDD55F
:108E100040F20112CBE70226F2E70326F0E700BF9B
:108E2000702002A8B46000A87C1C0020B45000A8E8
:108E3000B86000A8B85000A8245001A8246001A878
:108E400088D000A888E000A8C81E00B0641E00B04A
:108E500073B506461D46FFF75BFF044688B995E8E3
:108E600003006A4682E803009DF80430B6F8561005
:108E7000012B034607D1884205D20094104602F028
:108E800005FE02B070BD5B1A0093F7E74FF6FF7165
:108E9000084A10B513888B4209D00748074C1B04B9
:108EA0000460A0F5805003600020118010BD0320F5
:108EB000FCE700BF8C1C0020646001A80000FFFFDD
:108EC0005D4B2DE9F3471C6881468A46154604B17F
:108ED0000C3457A1D1E9000100EA090201EA0A03B2
:108EE000134367D0002109F4801050EA01024FF0CB
:108EF0000001524B18BF524AD3F81C3109F400103C
:108F000018BF136050EA01021CBF4E4A13600023D1
:108F100009F00052134309D04B4B1B6803F07F4309
:108F2000B3F1007F02BF0222484B1A60002309F010
:108F3000010213432FD04FF000080022002300212C
:108F40000120CDE9008802F0A3FB012001F026FEFC
:108F50004146E0800120FEF781FE3D4B1B6F5A0227
:108F600008D4A36913F0800F4FF4001314BF394ADB
:108F7000394A1360394B1A683AB16FF0FF0038492B
:108F800002400860A1F580510A6000221A6023782F
:108F900043F01003237000220AF00803134309D0A2
:108FA0000121204603F031FA2AF0080749EA0009B6
:108FB00047EA010AD4E9222309EA02000AEA030186
:108FC00002460B46134306460F461CD0254BA4F120
:108FD0000C0019683B4688474FF0FF33184A13606E
:108FE000184A1360002306F0080213431EBF002234
:108FF0001D4B1A6000231D4A1F40164056EA070306
:1090000001D0FFF743FFEB070DD51949194A08684E
:109010000021136811600121174A11701BB102B0C1
:10902000BDE8F047184702B0BDE8F087AFF3008015
:109030000100302008000000541A002000C001A8E0
:109040002C00002028000020741E00B0081002A888
:10905000000002A8205001A8206001A8881C002060
:1090600020E000A824000020701C00200000F02F49
:10907000941C0020901C00208E1C0020014BD3F873
:109080004C3170470080E00F4FF40022014B1A6012
:10909000704700BF702002A8024B186FC0F3C04099
:1090A000704700BF000002A8014B024A1A607047D7
:1090B000681C0020C1810000802103F089B90000F4
:1090C000012208B580F8442028220349A0F84E2048
:1090D000FEF7AEFE002008BDE0EB0000012208B55F
:1090E00080F8442028220349A0F84E20FEF7A0FE75
:1090F000002008BDB8E700004FF4F062044B0120E7
:109100001A604FF40072A3F580531A6001F098B80A
:109110004C6000A810B50446FFF7E0FF2046BDE80C
:109120001040FFF7E9BF007800F00300C31E58426B
:10913000584170472B4B70B52B4A996601F00303D9
:1091400083F0010313449C780D461E2305F00706A7
:10915000965D013B34444FEA5505F7D147F6FE7260
:10916000224B55281A60224B03FB04F36FF48174E1
:109170004FEA9343234402EA43031E4A1360194A09
:10918000536E23F00F030CBF43F0010343F00203BF
:10919000536691FAA1F190FAA0F0D2F838314FF06D
:1091A000FF321B045EBF4B08000F43EAC070124B36
:1091B00048BF05211A604FF0F04248BF0F48A3F5A1
:1091C0008053186058BF490003F5805303F10C0326
:1091D00058BF01F002011A60C906A3F58053196057
:1091E00070BD00BF004001A8A8D20000306201A8F5
:1091F00036FC1000305201A8046101A8B7563512A0
:10920000134B58639963072103F500533C331960EE
:10921000A3F580538AB1012119600E4BD3F8383180
:1092200013F4004F4FF4804300D142B90A490B6058
:1092300042B14FF48043094A05E01A60EDE7084A5D
:109240001360F6E7074A136053609360704700BFEE
:10925000004000A8004001A8B45000A8B86000A8D1
:10926000B46000A8B85000A8074BC3F85012C3F868
:109270005412D3F8502212B9D3F854221AB142F240
:109280000102C3F828227047004001A838B50C46F7
:10929000054600F03FF82146FFF7E6FF25B1AB6A2F
:1092A00013B15B6903B11C60002038BD38B50546B9
:1092B0000C4600F02FF8074B40B9D3F84832236032
:1092C00021682846BDE83840FFF7E0BFD3F84C32AC
:1092D000F5E700BF0080E00F07B50A4B1A780823B6
:1092E0006AB9094A136000230193084B186800B15A
:1092F0000C3001A9FFF7DAFF03B05DF804FB044A64
:10930000F0E700BF30000020FC1302A8541A002030
:10931000FC2302A8014B1878704700BF30000020E2
:109320004FF4803242F2E0010D4B5A500D490A6071
:109330001A6CD1B2C2F30722C3F88010C3F88020A0
:109340000422C3F880200022C3F88020C3F88020C4
:10935000C3F88020C3F88020C3F88020704700BF86
:1093600000400044EC5000442DE9F74F1C469DF8A6
:10937000303000EB40000193194B0001C558C6186E
:1093800005F00705AB1D01259D406F1E8A467368D9
:1093900004EA0701A5EB010843F0005B4245914652
:1093A000594418D94246504603F0F2FDA9EB080291
:1093B00059460AEB080003F0EBFD019B43B14C4416
:1093C0003D432C40F460B368A3421CBF0223B36248
:1093D00003B0BDE8F08F504603F0DAFDEDE700BFC3
:1093E0000840004438B50C4C0D4622606060FCF724
:1093F00081FC0021094BD3F8E020E16052075CBFFB
:1094000042F2E0020421A56058BF9950FCF7A8FC85
:109410000DB10223A36238BD08400044004000445F
:1094200040F6FF72034B1860034B196058605A6294
:10943000704700BF981C0020384000442DE9F84FC9
:1094400000EB4000284B0001042A00EB030506D87E
:10945000013A032A2BD8DFE802F0423F3C390126CB
:109460000F78141FAF614A780F1DAA618A78AA612C
:10947000CA78AA61C358D5F8089003F007030633E9
:109480009E4006F1FF3808EA09006B68A6EB000B66
:109490005C4543F0005A0CD839465044224603F04C
:1094A00077FD04EB090248EA06063240AA60BDE8EF
:1094B000F88F5A463946504403F06AFD07EB0B011A
:1094C000A4EB0B02504603F063FDEAE70B78013191
:1094D000AB610B780131AB610B780131AB610B787B
:1094E000AB61BDE8F88F00BF0840004437B50025E8
:1094F00014460095FFF738FF204603B030BD00004A
:1095000030235843104B10B5C418C35800F188409D
:1095100003F007039A1D012300F580409340826AFF
:10952000013BC2F30C028A4284BF6268E0689BB2CE
:1095300081BF09180B409B1803F100538CBF1878AA
:109540004FF0FF3010BD00BF0840004430235843A7
:1095500000F1884000F58040806AC0F30C0070473D
:10956000402910B50A464FF001030BD8064C0146BE
:10957000C4F8C0300320FFF761FF04230020C4F8C3
:10958000C03010BD1846FCE70040004438B5FCF779
:10959000B1FB01221B4B1C491C4C1A66C3F89020DE
:1095A0000A604C6007244C62194942F2E0050C80C5
:1095B0000021184C21804FF4A0245C5103F58753FF
:1095C0000C331C60144B1960144B1B6F5C0212D5DA
:1095D0004FF48004124B13491B680C607BB1596A2D
:1095E000090608D44FF4001493F850300E490C606B
:1095F0000BB10E4B1A60BDE83840FCF7B1BB9B695C
:10960000FFDE00BF0040004468400044A01C002072
:10961000221D0020201D0020241D0020000002A883
:10962000541A0020702002A8206001A8005101A84F
:1096300007220C4B1A8000220B4B1A800B4B1A602E
:109640004FF4005258605A62F022094B1A60A0226F
:10965000A3F580531A600122064BC3F8C020FFF720
:1096600095BF00BF221D0020201D0020984000440F
:10967000486000A8004000442DE9F041044698B13C
:10968000FCF738FB444E454B3188022C01F07F0239
:1096900002F0780705461F44DFF824C168D1DCF8E2
:1096A000004024B9FCF75CFB0320BDE8F08124F006
:1096B0000104DCF8000020F00100A0425CD100238E
:1096C000CCF800302388BC426FEA43436FEA53432F
:1096D000238041D1324ADFF8ECC01388ACF1800816
:1096E000CF18083B9BB204F10801F81A614528BF66
:1096F0004146082B80B204D9B1F900E0BEF1000F59
:1097000045DB13802288A178264CC2F30C026264E8
:10971000C2B225483280C26043624FF4802242F2D6
:10972000E00301F007010429E25015D14FF4800154
:109730001E4B1F4A1B6F1F4B1B6811604BB35A6AAD
:10974000120609D44FF4001193F850301A4A1160F0
:1097500013B10122194B1A60124BD3F8E030DB032E
:1097600001D5FFF7DDFD2846FCF7FAFA00209CE75B
:10977000012C08BF3C469CE7A21AD31A084A48BFEE
:1097800080331288083A9A429CDC28468AE70C46C5
:10979000A7E79B69FFDE00BF201D0020A01C002062
:1097A000221D00200040004468400044000002A840
:1097B000702002A8541A0020206001A8005101A8BE
:1097C000241D0020201D00200D480E4A0388128809
:1097D0000D491A44073A02F0780208330A449BB252
:1097E00003809078094900F0070004284B6203D1F8
:1097F0000749CB681B03FCD4064B1A60704700BFB7
:10980000221D0020201D0020A01C002068400044D4
:10981000000002A8241D002010B5054C206828B1C6
:10982000C30701D4FFF728FF0023236010BD00BF4A
:10983000241D00204FF48033084A09491360094A67
:109840000B60D2F88830C3F30C03782B05D8D2F81C
:10985000E030DB0301D5FFF763BD7047EC600044E7
:10986000E0500044004000442DE9F04705460F4613
:109870001446FCF73FFA4F4B824619884E4801F0D8
:109880007F0303F07802022D02444C4E1BD14C4D55
:10989000B6F800C02D689DB901EB0C05073D05F039
:1098A00078050544EB1A1B1A318848BF803399426A
:1098B0000DDC5046FCF754FA00252846BDE8F08739
:1098C00025F00105EEE7012D08BF1546EAE70FB9BF
:1098D000002C45D095423B4946D1CE68B6B204B182
:1098E00026800A68002F3BD002F0070808F1060224
:1098F0004FF0010808FA02F8334A1FFA88F9D2F843
:109900008820C2F30C029A423CDD2B889CB21B04D7
:10991000CFD4AB78C4F30C0409F1FF3003F0070394
:10992000A41B49EA00000440052B3B70A4B225D8D3
:1099300024B2E0430421C00FFEF784FB7C8009F1D0
:10994000FF331E40214BA4B21B689A19BA6032192A
:109950004245D3BF0023A9EB0606BE80BC80FB6056
:109960005046FCF7FDF9A8E7A5F10802824238BF8E
:1099700005F178021688C6F30C06B0E701F094F8FA
:10998000241AD5E78A6809F1FF33921B49EA0303D9
:1099900013400F4A9BB21CB2D26843B9C2F30362B0
:1099A000032A14BF002208223A707B80C7E70822EE
:1099B000FAE700BF201D0020A01C0020221D00206F
:1099C000241D00203840004400400044981C002022
:1099D000000002A870477047034B3121D3F84C3187
:1099E0000120FEF72FBB00BF0080E00F38B90B4B02
:1099F000D3F8F80780F40020C0F3C0407047012876
:109A000008D1064BD3F8F83713F4C02F0CBF012050
:109A100000207047831E584258417047000002A83A
:109A2000144B30B51A68431C134B1DD0B2F1407F64
:109A30001AD3124A00F03F05D2F8004124F03F0447
:109A400025435D6001F03F052C43DC60D2F8042122
:109A50000B4C14400B4A02EA5000204302EA510228
:109A6000986022431A6130BD00225A60C3E9022285
:109A7000F8E700BF0080E00FC81F00B0000002A898
:109A80001FF087E1E0FFFF7FFA23C90359430B4B27
:109A90001B68B1FBF3F30A215943B0FA80F3B1FA22
:109AA00081F29B1A002BD2BF0F22D940C3F10F02C3
:109AB000814288BF02F1FF32104670472C1D002002
:109AC000034B1A6802609B8883800020704700BFA8
:109AD0003A0000206FF07F4208B5134BD3F8FC37F3
